:020000040800F2
:10000000D0450020BD500008B14D0008B34D000898
:10001000B54D0008B74D0008B94D000800000000BC
:10002000000000000000000000000000BB4D0008C0
:10003000BD4D000800000000BF4D0008C14D000884
:10004000E1500008E5500008E9500008ED500008B4
:10005000F1500008F5500008F9500008CF4D000895
:10006000FD5000080151000805510008D54D000859
:10007000095100080D510008DB4D0008E14D000852
:10008000E74D0008ED4D0008F34D00081151000840
:10009000F94D000815510008195100081D510008BC
:1000A0002151000825510008295100082D51000850
:1000B0003151000835510008FF4D00083951000842
:1000C0003D510008054E00080B4E00084151000844
:1000D00045510008114E00081D4E00084951000806
:1000E0004D51000851510008555100085951000860
:1000F0005D51000861510008655100086951000810
:100100006D51000871510008314E0008755100080A
:10011000374E0008795100087D51000881510008D0
:1001200085510008895100088D5100083D4E000896
:10013000F8B5040001D10120F2BD04F13C05687856
:1001400020B900212970204600F082FD00F054F80B
:1001500000F0FCFF0146DFF8B000DFF8B030B1FB83
:10016000F0F2206842606068984206D34FF49670BF
:1001700042434FF47A76B2FBF6F22768521C3A6299
:1001800066689E4208D27600B1FBF6F0C0F30B0120
:10019000042913D2042011E0A06820B906EB46061A
:1001A000B1FBF6F005E019225643B1FBF6F040F43E
:1001B000804001050CBF012040F400402168C86167
:1001C000E269206A0243206802602169E068014315
:1001D000206881606169A06901432068C16020686E
:1001E000016841F001010160002068602020687012
:1001F00000202063A870F2BD242068702068016888
:10020000490849000160704740420F00A186010083
:10021000DFF80008E06270472DE9F84F044604F16A
:100220003D022168DFF87489D1F818904E694F6853
:100230005078DFF87C55DFF868A9DFF874B9DFF88B
:1002400074C9102818BF40286ED116F0011F04F1A0
:1002500044032ED0B8053ED55078402809D1D8683F
:1002600018B91A6802F0FE0221E0186840F0010097
:1002700026E02069B0F5804F0BD11278212A03D1F6
:10028000186800F0FE001CE01A6842F00102D2B2C9
:100290000DE0D86820B900F0C6F842F0F00206E0A0
:1002A000D868012817D100F0BEF842F0F1020A61C7
:1002B00011E0DFF80409064205D0BA050BD518682D
:1002C000C0B2086107E016EA0C0F04D0B80544BFBD
:1002D000204600F07FFA19EA0B0F12D016EA0A0F37
:1002E00007D0780505D52E4203D12046BDE8F24F50
:1002F0000BE12E4245D0B8055CD52046BDE8F24F53
:1003000067E116EA080F07D0780505D52E4203D11C
:100310002046BDE8F24FA7E12E4232D0B80549D5BC
:100320002046BDE8F24FF9E116EA0C0F12D0B805ED
:100330001AD58A6989690020530758BF01200A0627
:100340000146204654BFE268A269BDE8F84F92B268
:1003500000F02DBFDFF86408064205D0BB0503D5C9
:100360002046BDE8F24FE9E219EA0B0F2CD016EA5D
:100370000A0F1CD078051AD52E4218D11378608D3B
:1003800000284ED0606A451C65620078086100F064
:1003900050F808BF292B44D100F051F821202063E8
:1003A000282010702046BDE8F24F00F001BF2E4219
:1003B00037D0B80535D5608D002832D0606A421C30
:1003C00062620078086129E016EA080F1BD0780500
:1003D00019D52E4217D11378608D10B3606A451C71
:1003E00065620969017000F024F808BF2A2B18D152
:1003F00000F025F822202063282010702046BDE858
:10040000F24F00F0D6BE2E420BD0B80509D5608D54
:1004100038B1606A421C626209690170608D411ED8
:100420006185BDE8F18F1A681204D20D02F0060250
:100430007047608D411E6185608D0028704720687F
:10044000416821F4806141607047F8B50446DFF8E7
:1004500070172068456946680D420DD0F20518D521
:10046000216C41F0010121646FF4807242612068C7
:10047000016841F40041016015F4813F09D0F005A5
:100480003CD5206C40F0020020646FF400712068BD
:10049000416115F4823F24D0F0052FD504F13D00D1
:1004A0004778618D0278236B202F08BF00290BD17C
:1004B000212A18BF292A03D0282A08BF212B03D1BB
:1004C000204600F0A9FA0CE0216C41F004012164FF
:1004D0004078102801D100F065FB6FF4806022683D
:1004E000506115F4843F09D0F00507D5206C40F029
:1004F000080020646FF4006122685161206C18B11B
:100500002046BDE8F240C3E2F1BD38B500F13D023E
:1005100013785478C56A018D002908BF212B16D1A4
:10052000042D1EBF082DDFF89C168D4202D000F06E
:100530007EF809E000F087F804D10023537000F042
:1005400039FE44E00021517000F035FE3FE0212BE0
:1005500003D0402C08BF222B39D1418D11B900F0B6
:10056000D1F834E0517840292FD100F1480399683F
:1005700089B900685968012905D11A68D2B20261A7
:100580009868801C05E019680904090E01619868E3
:10059000401C98601BE09968012907D11A6800681F
:1005A000D2B202619968491C996010E099680229E9
:1005B0000DD11378222B05D10068016841F48071B8
:1005C000016004E01278212A01D100F026F8002011
:1005D00032BD10B5C36A00F13D021478212C1AD146
:1005E000418D11B100F019F815E0042B1EBF082B46
:1005F000DFF8D0158B4202D000F019F809E000F0C6
:1006000022F804D10023537000F0D4FD03E0002150
:10061000517000F0D0FD002010BD416A4A1C4262BA
:10062000026809781161418D4A1E42857047016850
:100630004B6823F4E0634B6011210163002151708A
:1006400020211170704701684B6823F4E0634B6010
:1006500001680B6843F400730B60002101632021E3
:10066000117051784029704710B500F13D010A78AA
:10067000222A45D1428D042A02D300F09BF83FE0A4
:10068000022A18BF032A13D10168C26A0B68022A22
:1006900008D023F480630B6001680A6842F40062AA
:1006A0000A6002E043F480630B6000F02BF827E05F
:1006B0000268C36A022B04D0146824F480641460B6
:1006C00003E0136843F48063136000F021F8426A8A
:1006D000531C436203681C691470428D531E43858A
:1006E000002220230B7002634A78402A04D10023A1
:1006F0004B7000F061FD03E000224A7000F05DFDE8
:10070000002010BD0068416821F48061416070479D
:100710000268536823F4E0635360704780B5C16A90
:10072000438DDFF8A024032B07D104291CBF08291F
:10073000914237D100F0F3F834E0438D022B31D1F0
:1007400004291CBF082991420ED00268022904D056
:10075000116821F48061116003E0136843F4806341
:10076000136000F031F806E000F02EF801680A6826
:1007700042F400720A6000F01DF800F01BF800F16E
:100780003D0120220A70002202634A78402A04D1E7
:1007900000234B7000F010FD06E000224A7000F0CC
:1007A0000CFD01E000F006F8002002BD0000000092
:1007B00004000100416A4A1C4262026813690B701E
:1007C000418D4A1E4285704701684A6822F4407292
:1007D0004A60704738B500F13D014A78C36A046B3E
:1007E0000D78222D40F08580016D002908BF402A38
:1007F00002D1002200927EE0016D002904BF02694F
:10080000B2F5404F07D100F081F842F480720A60DF
:10081000016D491C6BE0418D11B9002200922BE063
:10082000418D012933D1DFF89C2393420DD100F093
:1008300076F801684A68130510D4002200924B69CB
:1008400000938A690092009B1CE0042B1CBF082BBC
:10085000122C0DD00168C26A022A04D00B6823F45E
:1008600080630B6040E00A6842F480620A603BE00B
:1008700000F055F80021009101684A6900928B69E7
:100880000093009A0A6842F400720A602EE0016840
:10089000428D022A1CD1C36A022B0AD00A6842F494
:1008A00000620A60002100F031F822F480620A60E0
:1008B00005E00B6843F480630B6000F036F80168D4
:1008C0004A68130512D54A6842F480524A600DE026
:1008D0000B6843F480630B6001684A68130503D515
:1008E0004A6842F480524A6000F01FF80021016516
:1008F00004E000210091006800F002F8002032BD01
:1009000041690091806900900099704700910168E9
:100910004A6900928B690093009A0A6870470168DF
:100920000A6822F480620A60704700210091016821
:100930004A69009289690091009A70477CB500F17C
:100940003D02137801684C6824F4E0644C60002197
:10095000009101684C6900940D6845F001050D6037
:10096000009901680C6824F480640C600468616874
:100970000D050DD51578222D1CBF11782A2903D11C
:10098000856B29684E6802E0416B0D686E6846858C
:10099000418DD1B16569690707D5416A4D1C456232
:1009A00024690C70418D4C1E448501684C696506B4
:1009B00007D5446A651C456209692170418D4C1E4A
:1009C0004485016C41F004010164016C11B100F037
:1009D0005FF81CE0282B1CBF2A2B292B0BD1DFF83A
:1009E000E411C162002101632021117000215170C6
:1009F00000F0E4FB0BE0016B222918BF222B06D18B
:100A00000023036320211170537000F0D2FB0020FB
:100A100076BD00000000FFFF38B500F13D016FF426
:100A200080620B78C46ADFF89C51042C14BF082C38
:100A3000282B15D1C56203685C6824F4E0645C600F
:100A400003685A610268146824F480641460002208
:100A5000026320220A7000224A7000F0AFFB15E00A
:100A6000212B11D1C562036320230B7000234B702F
:100A700001684B6823F4E0634B6001684A61FFF74B
:100A80004EFF00F095FB01E000684261002032BD9E
:100A900038B5044604F13D052878292818BF2A28CE
:100AA00004D100202063282028700BE028786028DB
:100AB00005D02168486801055CBF2021297000200D
:100AC0002063687000F05CF8206841680A0523D54F
:100AD000416821F400614160606B0FF2ED0190F814
:100AE0002120012A09D04163606B00F03BFC002803
:100AF00029D000F04BF8606B0BE0A06B4163A06B5A
:100B000000F030FCF8B1206800F031F800F03EF859
:100B1000A06B416B884716E0297860290ED120220E
:100B20002A700022226400F022F820680168490837
:100B300049000160204600F090FD04E000F017F845
:100B4000204600F08BFD287828280FD1216C48071B
:100B50000CD5FFF75DFB00202063202028700020CB
:100B600068702046BDE8324000F028BB31BD4169C5
:100B70004A0604D5616A4A1C6262006908707047BF
:100B80002068016821F400610160704720680168F5
:100B9000490849000160202028707047400001008A
:100BA000800001002068016841F400710160704715
:100BB0000400100002000100080001001000010004
:100BC000000101000000FFFF406A01680A6822F48A
:100BD00080620A6000214185426B5163826B5163E0
:100BE00000F13D010B78602B0BD120220A7000220E
:100BF0004A70026401680A68520852000A6000F0F4
:100C00002CBD20230B7000224A7001680A6852082C
:100C100052000A6000F022BD80B51C481C490160EA
:100C20001C49416000218160C1604FF48041016135
:100C3000002141618161C1610162FFF779FA30B140
:100C4000BDE804404C210FF2580000F065BE01BD24
:100C500000680F49884200D07047F8B54FF44061F2
:100C60000091122003210190039169460A4800F087
:100C700055FE0A48016841F480010160006800F4F3
:100C800080000090009805B000BD0000683F002083
:100C900000580040A0860100000C01401C100240DA
:100CA000433A5C55736572735C31373635375C4453
:100CB00065736B746F705C445376312E335C4453B0
:100CC00050726F5C5372635C6932632E6300000084
:100CD0002DE9F8430646DFF898543078C1074AD525
:100CE000686800F00C00042807D0686800F00C0069
:100CF00008280BD16868C10308D5296888033AD54C
:100D00007068002840F0C080012069E17068B0F58B
:100D1000803F0FD038B9296821F4803129602868D4
:100D200020F4802009E0B0F5A02F296807D141F414
:100D300080212960286840F48030286006E021F492
:100D4000803129602A6822F480222A60706868B1A4
:100D500000F0E6FE04462968880300F1958000F063
:100D6000DFFE001B6528F6D3032039E100F0D8FE32
:100D700004462868810340F1878000F0D1FE001B03
:100D80006528F6D3F0E700F0CBFE001B022840F206
:100D9000AA80E9E7306970B10121396000F0C0FE36
:100DA00004462868810700F1DC8000F0B9FE001BD2
:100DB0000228F6D9D8E7386000F0B2FE0446286869
:100DC000810765D500F0ACFE001B0228F7D9CBE700
:100DD000086000F0A5FE0446686A810777D500F038
:100DE0009FFE001B0228F7D9BEE708B9286A09E070
:100DF0000528286A06D140F004002862286A40F0DD
:100E0000010005E0400840002862286A20F0040044
:100E1000286241F28938F06868B100F081FE8146AD
:100E2000286A810700F1AA8000F07AFEA0EB090091
:100E30004045F5D398E700F073FE8146286A8107A4
:100E400040F19C8000F06CFEA0EB09004045F5D31A
:100E50008AE700F065FE001B022840F2A28083E7CB
:100E600000F05EFE001B022840F2B5807CE700F037
:100E7000B9F804462868810140F1B18000F050FEC5
:100E8000001B0228F6D96FE73078DFF8F07281078F
:100E90001BD5686810F00C0F09D0686800F00C00D2
:100EA00008287FF477AF6868C1033FF573AF2968FE
:100EB000880703D5306901287FF426AF2968706957
:100EC00021F0F80141EAC0012960317808071DD5F9
:100ED000B069DFF8AC1200283FF47AAF01220A6053
:100EE00000F01EFE0446686A81077FF54CAFDFF80C
:100EF00084120868C0084FF47A72B0FBF2F20092D4
:100F000000BF0098411E00280091F9D130784107B8
:100F100039D5E8690024C10009D4E86940F080505F
:100F2000E8610124E86900F0805000900098DFF843
:100F30005482D8F80010C8051BD4D8F8000040F43B
:100F40008070C8F8000000F0EBFD8146D8F8001072
:100F5000C8050ED400F0E4FDA0EB09006528F5D328
:100F600002E72868716920F0F80040EAC1002860B3
:100F7000ABE7F06801287FF438AF3FE71CB1E869C0
:100F800020F08050E861F06948B3696801F00C0115
:100F900008293FF4B9AE02287FF469AF00F022F8C7
:100FA0000446286881013FF554AF306AB0F5803FB0
:100FB00005D16968B06821F400310143696069684E
:100FC000306A21F474110143706A014369600120A1
:100FD00000F009F80446286881017FF541AF002040
:100FE000BDE8F2830020386600F09ABD2DE9F84391
:100FF000654F05463868894600F00700484502D22B
:1010000000F07AF86CD12978594C880705D56168C9
:10101000A86821F0F001014361602878C10757D525
:101020006868012802D121688A0303E0022803D1FD
:1010300021688A0103D453E02268910750D5616882
:10104000890840EA8100606041F2893800F068FD5B
:101050000646686801280BD1606800F00C0004287F
:1010600036D000F05DFD801B4045F5D303202DE018
:10107000022837D1606800F00C00082828D000F062
:101080004FFD801B4045F5D3F0E72878410705D593
:101090006168E86821F4E061014361602878010734
:1010A00006D56068296920F4605040EAC10060609C
:1010B00000F02CF862683549C2F30312895C2D4AAE
:1010C000C8401060002000F031FD0020BDE8F28330
:1010D000386800F007008145D7D200F00DF8D4D071
:1010E0000120F3E7606810F00C0FF1D000F018FD5C
:1010F000801B4045F6D3B9E73968C90849EAC10100
:101100003960386800F007004845704720490A6890
:1011100002F00C00082814D10FF28003C2F38340C0
:10112000D203185C0AD509680FF28003124AC1F392
:101130004041595CB2FBF1F14843704715494843BF
:1011400070470D4870470B48006870470948104ABF
:10115000006813681049C3F3022206E005480C4AF0
:10116000006813680C49C3F3C222895CC840704709
:10117000001002400002002000127A0000004242EB
:10118000800442420070004000200240984F000856
:101190000410024000093D00D85000080203040575
:1011A000060708090A0B0C0D0E0F101001027047FC
:1011B0007047704770477047704770477047F0B48A
:1011C0000246106895681318506803EB5004C00776
:1011D00021D54D441FE0F0BC02F10C00704713F81C
:1011E000017B05F8017B491EF9D1A0B1B60813F8BF
:1011F000011B06F00306032E08BF13F8016B01EB79
:1012000006214942801C294405D011F8016B05F8DC
:10121000016B401EF9D1A342DDD013F8016B16F02B
:10122000030104BF13F8011BC91C30090F28DAD1D0
:1012300013F8010B0F30D6E730B508B9012030BDE7
:101240000268DFF8B0138A4200F1280306D2DFF803
:10125000A81300F02DF8DFF8A41305E0DFF8A013C1
:1012600000F026F8DFF89C135961022180F8211064
:10127000146841686FF30D140C4381680C43C16816
:101280000C4301690C4341690C4381690C43C169FA
:101290000C4314600021196059609960D96019618C
:1012A000012180F82110002180F82010002030BD9D
:1012B0008C181425B4FBF5F4A4009C617047F8B5B4
:1012C0000446002594F82000012801D10220F2BD37
:1012D00094F821000126012884F8206024D10226F8
:1012E00084F8216004F12C06F560206807687F0807
:1012F0007F000760204600F09FF92168306820B128
:101300000A6842F00E020A6008E0086820F0040053
:1013100008602068016841F00A01016020680268E5
:1013200042F00102026002E084F8205002252846C3
:10133000F2BD10B501680A6822F00E020A6000F1E1
:101340003C020B685B085B000B60012451688C4019
:1013500011684C600122002180F8212080F82010C3
:10136000002010BDF8B590F821200024022A00F1D9
:10137000340103D00420486001245FE00268DFF8F4
:101380008862136823F00E0313604FF480770268BD
:1013900015686D086D0015604FF480320368B34224
:1013A0004FF4805519D9DFF84C62B34208BF0122CF
:1013B00010D0DFF85862B34208BF10220AD0DFF81D
:1013C0005062B34208BF3A4604D0DFF84862B342E5
:1013D00008BF2A46DFF8403227E0DFF840C2634505
:1013E0001CD0DFF83CC263451AD0DFF838C2634531
:1013F00018D0DFF83472BB420EBF2A46DFF82C52F9
:10140000AB4210D0DFF82852AB4208BF4FF4801235
:1014100009D0B34207D14FF0807204E0012202E00C
:10142000102200E03A46DFF80C321A60012280F800
:10143000212080F82040096801B188472046F2BD8C
:101440002DE9F84F00F1280204275169734BD1F8B8
:1014500000E004686C4925689669DFF8BC81DFF814
:10146000B491DFF8ACA1DFF8A4B1DFF888C1B740D0
:101470001EEA070F4AD06F0748D52568AD0603D48A
:10148000256825F0040525604FF4802407688F4205
:101490004FF480454FF4806611D9674508BF042496
:1014A0000AD05F4508BF402406D0574508BF3446E0
:1014B00002D04F4508BF2C46C8F8004020E09F42AC
:1014C00017D0574B9F4216D0564B9F4215D0564BC4
:1014D0009F420EBF2C46554B9F420FD0544B9F420C
:1014E00008BF4FF4800409D08F4207D14FF08064C9
:1014F00004E0042402E0402400E034464D490C603E
:101500005168002974D0BDE8F44F08470227B7405E
:101510001EEA070F4FD0AF074DD52568AD0606D49C
:10152000256825F00A052560012480F821404FF444
:10153000003407688F424FF400554FF4007611D9FC
:10154000674508BF02240AD05F4508BF202406D0A3
:10155000574508BF344602D04F4508BF2C46C8F84F
:10156000004020E09F4217D02D4B9F4216D02D4BBC
:101570009F4215D02C4B9F420EBF2C462B4B9F42B7
:101580000FD02B4B9F4208BF4FF4001409D08F425D
:1015900007D14FF0007404E0022402E0202400E0B0
:1015A000344624490C60002180F820101168F9B1FC
:1015B000BDE8F44F0847082101FA06F61EEA060FB7
:1015C00016D0290714D5216821F00E0121600123CE
:1015D00091698B4051694B6001230021136180F8B0
:1015E000201080F82130916811B1BDE8F44F084710
:1015F000BDE8F18F08040240F8FFFDBF0000024083
:10160000F8FBFDBF00040240800002401C040240C1
:101610003004024044040240040402400800024036
:101620001C000240300002404400024058000240CA
:101630006C0002400400024038B5046C0125A5404E
:10164000C46B6560046863604068102802D1A260C2
:10165000E16031BDA160E26031BD704770470000BC
:1016600038B500F077FA00F04FF800F085FA00F096
:10167000FDFA00F013FB00F038FB00F054FB00F023
:1016800069FC00F088FC00F0FDFC00F039FD00F082
:1016900021FBFFF7C1FA00F07CF89748974C984D72
:1016A00000F0D7FD974800F0D4FD4FF40062964952
:1016B000204600F0EFFF4FF400629449284600F006
:1016C000E9FF2068924CC16841F01001C1602868B0
:1016D000C16841F01001C16001F0B1FA01F018FCDD
:1016E00001F00FFB04F10C0001F0B5FB207A01289A
:1016F000F4D104F10C0001F0C6FA04F1280001F065
:10170000DAFA00202072E9E700B5002195B0012047
:101710000D910B90022112914FF480300C90012218
:1017200013904FF4E0110F9214910BA8FFF7D0FA29
:1017300000B1FEE70F2102200091019000214FF43B
:10174000806002910390049168460221FFF74EFCED
:1017500000B1FEE7122005904FF4004100200A90EE
:10176000079105A801F0EEFB00B1FEE7FFF7EBFCE7
:101770004FF47A71B0FBF1F001F09BFC042001F012
:10178000ACFC002200214FF0FF3001F06BFC15B0E3
:1017900000BD80B500220021142001F063FC14205C
:1017A00001F07DFC00220021072001F05BFC0720F6
:1017B00001F075FC00220021252001F053FC2520BA
:1017C00001F06DFC00220021262001F04BFC2620B8
:1017D00001F065FC002200211E2001F043FC1E20C8
:1017E00001F05DFC00220021322001F03BFC3220A0
:1017F00001F055FC002200210E2001F033FC0E20E8
:1018000001F04DFC002200210F2001F02BFC0F20E5
:1018100001F045FC00220021102001F023FC1020E3
:1018200001F03DFC00220021112001F01BFC1120E1
:1018300001F035FC002200210B2001F013FC0B20ED
:1018400001F02DFC00220021212001F00BFC2120C1
:1018500001F025FC00220021222001F003FC2220BF
:1018600001F01DFC00220021342001F0FBFB34209C
:1018700001F015FC002200213B2001F0F3FBBDE844
:1018800002403B2001F00BBC38B51B4B204C0268DA
:101890001D686189AA4208D1491C89B240F22D1203
:1018A000914202DB012121720021164A6181006808
:1018B000116888421FD11021164800F0FAF82070F4
:1018C000002804BF617800290ED1207988B9A0785A
:1018D000401CA070C0B215280BDBE07848B901218C
:1018E000E170A070217104E000202071608001206F
:1018F00060712078607031BD4440002004410020B8
:1019000044410020844000206C230020702B0020E4
:101910000040002000100140FEE700002DE9F84FD4
:1019200083460F46002080466C496D4A6D4B4FF050
:101930000F094FF0010A3C680AFA08F606EA040E9D
:10194000B64540F0AE807C683CB3012C1AD0022C26
:101950001DD0032C2ED0112C16D0122C1AD0624D73
:10196000AC421CBF614DAC4217D0614DAC421CBFB4
:10197000604DAC4211D0604DAC421CBF5F4DAC42DB
:101980000BD018E0F86816E0F868001D13E0F8685E
:10199000083010E0F8680C300DE0B86808B9042091
:1019A00009E0012819BF0820CBF814600820CBF803
:1019B000106000E00020BEF5807F03D2DC464FEAD5
:1019C000880404E0A8F108040BF1040CA400DCF87E
:1019D000005009FA04F6B54300FA04F42C43CCF89D
:1019E00000407C68E4005CD51C6844F001041C6085
:1019F0004FEA980C1D6805F001050095009C52F80F
:101A00002C604FEA880404F00C0409FA04F526EA75
:101A100005053B4EB34508BF002618D0394EB345E7
:101A200008BF012613D0384EB34508BF02260ED09A
:101A3000364EB34508BF032609D0354EB34508BF1F
:101A4000042604D0334EB3450CBF0526062606FAFD
:101A500004F42C4342F82C406FEA0E067C68E50340
:101A600004D50D684EEA05050D6002E00C683440AF
:101A70000C607C68A5034C684CBF4EEA04043440FB
:101A80004C607C68E5028C684CBF4EEA040434402C
:101A90008C607C68A502CC684CBF4EEA04043440DC
:101AA000CC6008F10108B8F10F0F7FF644AFBDE834
:101AB000F18F8068084018BF0120C0B2704781B024
:101AC00002B90904016101B07047134A1368034267
:101AD0001CBF106000F022B87047000000040140F5
:101AE0000800014018100240000011100000121000
:101AF0000000211000002210000031100000321000
:101B000000080140000C0140001001400014014099
:101B100000180140001C01401404014070470000FF
:101B200001480068704700BFC441002010B5084953
:101B30000A6804464FF47A70B2FBF0F001F0B9FA8B
:101B4000002221464FF0FF3001F08CFA002010BD3A
:101B50000002002080B50748016841F010010160D3
:101B6000032001F072FA0020FFF7E0FF01F0D2FA43
:101B7000002002BD00200240F0B53748374C384DF8
:101B8000384E85B0016841F01001016042F2020751
:101B9000026802F0100204920499016841F02001E9
:101BA0000160026802F0200204920499016841F089
:101BB00004010160026802F0040204920022049908
:101BC000016841F0080101603946006800F0080032
:101BD000049004982046FFF772FF002260212846F7
:101BE000FFF76DFF00224FF418713046FFF767FFD3
:101BF0000120022101900391009769462046FFF7DA
:101C00008DFE022000900020174901910290694644
:101C10002846FFF783FE602000F016F82846FFF7FD
:101C20007DFE102000900021012001910290694664
:101C30002046FFF773FE4FF4187000F005F83046A9
:101C4000FFF76CFE05B0F0BD00900121022001916C
:101C500003906946704700001810024000100140D0
:101C600000080140000C0140000011100A4881B03A
:101C7000016841F001010160026802F00102009276
:101C80000099016841F002010160006800F0020063
:101C90000090009801B070471410024010B5094C34
:101CA00009490022204601F07BFA0849204601F04C
:101CB0008AFA0749204601F061FC2046BDE8104041
:101CC00001F089BAD0370020240300201002002040
:101CD0001403002080B58748874900F011F818B137
:101CE000BDE8044053211AE001BD80B58348844912
:101CF00000F006F818B1BDE8044066210FE001BD10
:101D000001604FF4E131416000218160C1600161F7
:101D10000C21416100218161C16100F043BC0FF2DF
:101D20000420FFF7F9BD80B576487749FFF7E8FF53
:101D300018B1BDE804407921F1E701BD2DE9F8476C
:101D4000044685B021686C4A70480FF2D818704E6E
:101D500091424FF4806724D1416841F400214160F1
:101D60000321406800F400200490049800970220AA
:101D7000019003916946674F3846FFF7CFFD4FF456
:101D80000060002100900191029138466946FFF7FA
:101D9000C5FD614800F093F8002800F08880A42178
:101DA00083E0574ADFF87491DFF874A1914206F19D
:101DB000880542D1016841F4804101604FF400710F
:101DC000006800F4804000F089F800200190029043
:101DD000009769465046FFF7A1FD09F114007064B1
:101DE0000020B064F0648020306500207065B0652C
:101DF000F065306606F14400FFF71EFA10B1CF21FE
:101E000000F05AF806F144006063B466C5F800902B
:101E1000102068600020A8608020E8600020286111
:101E20006861A861E8612846FFF706FA10B1DF2172
:101E300000F042F825636C623BE0334A914238D1AE
:101E4000416841F4003141600421406800F40030F1
:101E500000F044F8082000210090019102915046C2
:101E60006946FFF75BFD09F12800686406F1CC07BD
:101E70000020A864E8648020286500206865A865C3
:101E8000E86528663846FFF7D7F918B14FF4857131
:101E900000F012F8676306F58876AC6609F13C003D
:101EA00000F00DF818B14FF48D7100F005F82663BD
:101EB000746206B0BDE8F0874046FFF72DBD306084
:101EC000102070600020B0608020F0600020306141
:101ED0007061B061F0613046FFF7AEB90490022244
:101EE0000498009103200390019269465046FFF741
:101EF00015BD0000C4400020004C004004410020FB
:101F000000380140444100200044004018100240C5
:101F1000143E0020001001405804024044000240DA
:101F200000080140433A5C55736572735C31373683
:101F300035375C4465736B746F705C445376312E37
:101F4000335C445350726F5C5372635C757361729F
:101F5000742E63003A4838B53A4C0FF2F805206009
:101F600086B0472060600020A06040F2E73000F0BB
:101F700043F810B14A2100F035F800F02CF810B108
:101F8000502100F02FF800F030F810B1572100F088
:101F900029F807B030BD2C4838B52C4C0FF2B405E9
:101FA000206086B0472060600020A060632000F0C1
:101FB00023F810B1692100F015F800F00CF810B109
:101FC0006F2100F00FF800F010F810B1762100F04A
:101FD00009F807B030BD4FF48050029002A92046A6
:101FE00000F0F8B92846FFF797BC00200090019058
:101FF0006946204601F0EABAE060002020618020B6
:10200000A061204600F018B981B000680C4A104960
:10201000904207D1086840F004000860096801F0A8
:10202000040109E0084A904208D1086840F008001D
:102030000860096801F008010091009801B070473C
:102040000008004044400020000C00408440002074
:102050001C100240433A5C55736572735C3137362D
:1020600035375C4465736B746F705C445376312E06
:10207000335C445350726F5C5372635C74696D2EB1
:102080006300000080B50F480F49016001F0C3FAFA
:1020900030B1BDE8044042210FF23400FFF73CBCF0
:1020A00001BD81B000680849884209D1074801682C
:1020B00041F040010160006800F04000009000988D
:1020C00001B07047B44100200030024014100240BB
:1020D000433A5C55736572735C31373635375C440F
:1020E00065736B746F705C445376312E335C44536C
:1020F00050726F5C5372635C6372632E6300000006
:102100003EB53B4C3B480FF2001520604FF4807009
:10211000A0600020E06060614FF46020E06100207A
:10212000606002202061204601F086FA18B14F213C
:102130002846FFF7F1FB0C200090012107200191B8
:1021400002906946204601F077FB18B159212846D4
:10215000FFF7E2FB10200221009001912046694622
:1021600001F06AFB18B162212846FFF7D5FB37BDA5
:1021700030B5044685B020681E49884236D11E48D5
:102180001E4D016841F4007101600421006800F4F3
:10219000007000900322009819480191029201A951
:1021A000FFF7BCFB00206860A8608020E8604FF467
:1021B000007028614FF4006068612020A861002051
:1021C0001049E86129602846FFF736F820B18621DA
:1021D0000FF23400FFF7A0FB25626C6200220021A1
:1021E000122000F03FFF122000F059FF05B030BD73
:1021F000844100200024014018100240BC3F002010
:102200000010014008000240433A5C557365727348
:102210005C31373635375C4465736B746F705C4482
:102220005376312E335C445350726F5C5372635C4F
:102230006164632E6300000038B5040001D1012001
:1022400032BD00F01FF818B900F018F8FFF7DCFEF7
:102250000AE00068C16841F00101C160026842F013
:10226000010202600020704702206870211D206872
:1022700000F01BF901206870002032BD0021297098
:102280002046704704F13C056878704710B5044655
:10229000206801698A0715D5C1688A0712D56FF0D1
:1022A0000202026101212177806910F0030F2046AC
:1022B00002D001F06FFB03E001F06DFB00F087F846
:1022C00000202077206801694A0715D5C1684A07B0
:1022D00012D56FF00402026102212177806910F4A7
:1022E000407F204602D001F055FB03E001F053FB94
:1022F00000F06DF800202077206801690A0715D5E5
:10230000C1680A0712D56FF0080202610421217723
:10231000C06910F0030F204602D001F03BFB03E040
:1023200001F039FB00F053F80020207720680169A4
:10233000CA0615D5C168CA0612D56FF0100202612F
:1023400008212177C06910F4407F204602D001F0B7
:1023500021FB03E001F01FFB00F039F8002020779B
:1023600020680169CA0708D5C168CA0705D56FF09A
:10237000010202612046FFF787FA206801690A0618
:1023800008D5C1680A0605D56FF0800202612046B3
:1023900001F002FB206801694A0608D5C1684A06B7
:1023A00005D56FF040020261204601F0F6FA206880
:1023B00001698A060AD5C1688A0607D56FF020022E
:1023C00002612046BDE8104001F0E8BA10BD204689
:1023D00001F0E5BA38B500F05DF801D1022032BD58
:1023E00001222270022060702A68DFF834019368AD
:1023F000034093600868002837D0102837D0202881
:1024000037D0302837D040282BD050281ED0602815
:1024100020D070280BD0B0F5805F03D0B0F5005FFE
:102420000CD02CE028688168C908C9000CE000F0D5
:1024300028F82868816841F0770105E000F021F86C
:102440002868816841F48041816018E000F01EF83E
:10245000502111E0CA684968286800F07CF86021C2
:102460000AE000F013F8402106E0002104E010210A
:1024700002E0202100E03021286800F07EF80FE023
:102480000000CB684A68896828687EE0CA684968A5
:10249000286851E0054605F13C0420780128704782
:1024A000012060700020207032BDF0B5DFF874C0EC
:1024B0001D4F03681D4C1E4D1E4E604518BFB8428F
:1024C00008D0B0F1804F18BFB04203D0A84218BF67
:1024D000A0420DD14A6823F070031343604518BF32
:1024E000B84207D0B0F1804F1CBFB042A84201D023
:1024F000A04203D1CA6823F4407313434A6923F00E
:1025000080031343036060458A68C2620A6882627E
:1025100012BFB8420969016301214161F0BD0000A9
:102520008800FFFF002C014000340140000C0040F7
:10253000000800400004004010B5036A046A640803
:102540006400046223F00A03846924F0F00444EA7E
:102550000214846123E010B5036A23F010030362C0
:102560008369046A23F4704343EA023324F0A0042D
:10257000836144EA0114046210BD826822F0700293
:10258000114341F007018160704710B5846824F45D
:102590007F442143114341EA0321816010BD194367
:1025A000016210BD38B5040001D1012032BD00F038
:1025B00022F808B900F023F800F013F800F024F82E
:1025C000FFE7416100F001F832BD2068C16841F4C5
:1025D0000051C1600020686020206870A870002051
:1025E0007047242068702068C16821F40051C160E0
:1025F000204600F038BA04F13805687870470021A9
:1026000029702046FFF79ABB2068016921F49041A8
:1026100001612068416921F02A01704770B50446C4
:1026200004F1380513466878202831D109B1180023
:1026300001D1012070BD2878012829D001222A70FB
:102640002162A384E3840020686021206870226BEB
:102650000FF285209062226B0FF2A920D062226BCC
:102660000FF2E92010630020266B70632068021DC2
:10267000206BFEF724FE21686FF040000860002008
:1026800028702068416941F080014161002070BDDF
:10269000022070BD38B5044604F138051346A87809
:1026A00020283ED109B1180001D1012032BD28787F
:1026B000012836D001222A70A162A385002068601B
:1026C0002220A870626B0FF245209062626B0FF2BD
:1026D0007520D062626B0FF2752010630020626B70
:1026E00050630A462068011D606BFEF7E8FD00207C
:1026F00000902068016800914268009200220099D1
:102700002A70C26842F48072C2602068416941F058
:10271000010141612068416941F0400141610020AF
:1027200032BD022032BD38B5044604F139052068B7
:1027300041692A78212A09D1090607D500F017F83E
:1027400008B1FEF7F6FD204600F025F92068416942
:102750006A78222A09D1490607D500F00EF808B197
:10276000FEF7E7FD204600F01FF9002032BD416969
:1027700021F080014161206B7047416921F04001E7
:102780004161606B704738B5044625682968EA687E
:102790006B6911F00F0007D188065DD590065BD5F7
:1027A0002046BDE8324013E1D80702D412F4907FEE
:1027B00052D0C80705D5D00503D5E06B40F0010025
:1027C000E063480705D5D80703D5E06B40F0020069
:1027D000E063880705D5D80703D5E06B40F0040017
:1027E000E063080705D5D80703D5E06B40F0080083
:1027F000E063E06B00286ED0890604D5900644BFE4
:10280000204600F0E5F820684069E16B0A0701D432
:1028100040061BD5204600F0C7F8206841694A06EB
:102820000FD5FFF7AAFF60B10FF299114163606BFA
:10283000FEF798FD00284ED0606B416BBDE8344038
:1028400008472046BDE8324001F0AAB8204601F012
:10285000A7F80020E06331BD08062CD510062AD564
:1028600094F83900212836D1A168206AB1F5805F3B
:102870000DD10188C1F308016960206918B9216A86
:10288000881C206207E0206A411C216203E0411C91
:10289000216200786860E08C401EE08480B2D0B98C
:1028A0002068C16821F08001C1602068C16841F0E2
:1028B0004001C16031BD48060DD550060BD5E86812
:1028C00020F04000E860202184F839102046BDE85F
:1028D000324001F066B831BD416A00680268930673
:1028E00044BF084601F05DB80020C884086842690A
:1028F00022F0800242610868C16841F04001C16075
:1029000070470000406A01F04DB80000416A00685D
:102910000268930613D40020C8850868C26822F4B0
:102920008072C260086842695208520042610868B9
:10293000426922F040024261202081F83A000846B4
:1029400001F031B8406A01F02FB8000038B5446A90
:102950002068406904F139052978212906D100064B
:1029600004D50020E084204600F015F82068406976
:102970006978222906D1400604D50020E08520464A
:1029800000F012F8E06B40F01000E0632046BDE874
:10299000324001F005B80168CA6822F0C002CA607E
:1029A000202180F8391070470168CA6822F49072BB
:1029B000CA6001684A69520852004A61202180F8C1
:1029C0003A107047406A0021C185C18400F0E8BF19
:1029D00080B590F83A10222943D18268B2F5805F21
:1029E00014D1826A016941B903685968C1F30801C9
:1029F0001180826A911C816218E001684B6803F0C3
:102A0000FF031380816A4A1C82620FE0016900297A
:102A1000816A04D14A1C82620268536805E04A1C3C
:102A200082620268536803F07F030B70C18D491EF8
:102A3000C18589B299B90168CA6822F02002CA60CA
:102A40000168CA6822F48072CA6001684A69520843
:102A500052004A61202180F83A1000F0A4FF0020C3
:102A600002BD022002BD2DE9F0470446642521681D
:102A70000A69E06822F4405202430A611926CA68D2
:102A800031480240A0680243206902436069024362
:102A9000CA604A69A06922F4407202432B484A6125
:102AA00081420ED1FEF75AFB0746FEF757FB8046E0
:102AB000FEF754FB8146FEF751FB8246FEF74EFBC4
:102AC0000DE0FEF743FB0746FEF740FB8046FEF7AE
:102AD0003DFB8146FEF73AFB8246FEF737FB06FBDD
:102AE00009F9616889007743B7FBF1F206FB08F743
:102AF000B7FBF1F3B9FBF1F7B7FBF5F705FB1733BC
:102B00001B013233B3FBF5F3B2FBF5F203F0F00334
:102B100003EB021306FB0AF74643B7FBF1F2B6FBE1
:102B2000F1F06421B0FBF1F005FB10252D013235E9
:102B30006420B5FBF0F0216800F00F00C3188B6033
:102B4000BDE8F08700000000F3E9FFFF0038014016
:102B500030B502460020DFF8803308E012F8015B50
:102B600084B285EA242533F8154084EA00200C4617
:102B7000611EA4B2002CF1D1C04380B230BD70B54B
:102B800004460A46207CD8B901212174207850706F
:102B900060789070E078D070A07810715D20A58981
:102BA0005619291DF07189B2501CFFF7D1FF010A97
:102BB0007171B071083501202076E5810020A07682
:102BC000002070BD1CB500680168CA060BD5002046
:102BD0000090DFF8084300F019F8606B016848685E
:102BE000DFF8FC121BE013BD1CB500680168CA06C3
:102BF0000BD500200090DFF8EC4200F007F8606B86
:102C000001684868DFF8E01209E013BD2068016838
:102C100000914068009020460099FFF784BDC0F500
:102C20000060488002B0087840F0010001F8040B11
:102C30004FF400622046BDE81040FFF72BBDDFF8DF
:102C4000AC12DFF8AC225B2008705B21DFF8A40235
:102C5000117001705D214171002070470A460146E4
:102C6000DFF87802FFF7DABC0A460146DFF87402A3
:102C7000FFF7D4BC417E002904BFDFF87012FFF7D4
:102C80007EBF0020704710B504460020217E012938
:102C900010D1A27E012A02D0E17E052900DB22E0CC
:102CA000E189DFF848024FF6FF72FFF7D7FFE17EB8
:102CB000491CE17610BD10B504460020217E012993
:102CC00010D1A27E012A02D0E17E052900DB0AE0B4
:102CD000E189DFF81C024FF6FF72FFF7C5FFE17EC6
:102CE000491CE17610BD20742076E076A07600F0D5
:102CF00001F810BD6076A081E070A070E082E081F4
:102D00007047F8B576490878C2075BD500F0FE0039
:102D10000870794A107E002804BF507E002851D1E7
:102D20009589D08A4B88714CA8421CD2D8B100201A
:102D300001E0401C80B2984244DAD68A01F1040EC8
:102D4000671D00EB060C1EF800E007F80CE0761C8F
:102D5000D682B6B2B542ECD10B18DC795D2C2DD100
:102D600000F04EF82EE0D08900282BD10D795B2D94
:102D700029D14E794D7A06F0F000A02808BF5D2DCC
:102D800002D100F046F81DE000F04EF856B9C87ABE
:102D90005D2817D1887A0830854001210820958068
:102DA00051760EE0052501E06D1CADB29D4209DAB9
:102DB00000F01BF8F8D100F007F800D047E000F071
:102DC00009F8D0810020F2BD01F10B03B6B29B5D82
:102DD0005D2B70474B1D294489795B5D08318B4021
:102DE000938008300123537670470E1D87B2765DBD
:102DF0006655D68A761C1FFA86FC6745D6827047D0
:102E0000491D085C997908318840908001205076EE
:102E10007047567488799074C879097A01EB00215B
:102E2000012091829076704716708F795770087ADA
:102E3000907091F807C082F803C020716670A77087
:102E400084F803C000EB0C20908186B2704700200C
:102E5000D082D060F2BD38B504460025607E0128DE
:102E600022D1217801F0F001B02908D0C02908D082
:102E7000D02908D0E02908D0F02908D00FE0AB20F5
:102E800006E0AC2004E0AD2002E0AE2000E0AF2080
:102E900060740120A074204600F008F800E00425CA
:102EA00000202074FFF726FF284632BD1CB500F035
:102EB00025F800F003F8FFF7D1FE16BD01460D48D6
:102EC0000A0A0171C2704FF6FF72617C4170A17CE9
:102ED000817006217047000000000020044100209E
:102EE00068230020444100206C2B00205813002050
:102EF000601B0020BC4100200C4000200446022141
:102F0000607C8DF800006846A27C8DF801201FE6E9
:102F100010B50A4CE2780020002A1CBF6179002914
:102F20000BD0012106484170B1220021027081813D
:102F30004180FFF79FFE0021617110BD004000201D
:102F40000C4000202DE9FC410646354D3078C10784
:102F500050D5A8690024C10009D4A86940F0805068
:102F6000A8610124A86900F08050009000982D4FBE
:102F70003968C80517D4386840F480703860FEF7A7
:102F8000CFFD80463968C8050DD4FEF7C9FDA0EB1A
:102F900008006528F6D303203FE0FEF7C1FDC01B03
:102FA000404519D3F7E7E86910F440701EBF716817
:102FB00001F44071884212D01B49E86901220A607D
:102FC00020F4407000220A60E861C00707D5FEF7D0
:102FD000A7FD074641F28938E8698107DDD5E9692F
:102FE000706821F440710143E9611CB1A86920F0C7
:102FF0008050A8613178880705D52A68B06822F426
:10300000404202432A603078C10605D529687069BC
:1030100021F48001014329600020BDE8F681000011
:1030200004100240007000404004424209010028A0
:1030300081B006D52F4A00F00F00104400F8041CA0
:1030400001E02D4A115401B070472C4A13684FF625
:10305000FF0100020B4000F4E060184328490843D8
:103060001060704738B5254B1C68C4F30223C3F1C8
:103070000704052C28BF04241D1D072D34BF002381
:10308000DB1E012505FA04F4641E2140994005FA6F
:1030900003F35B1E1A401143BDE83440C6E701222A
:1030A00000F01F01174BFFE78A40400943F820203A
:1030B000704710B5401EB0F1807F01D3012010BDD4
:1030C000114C60600F214FF0FF30FFF7AFFF00227F
:1030D000A26007202060002010BD04280A4904D106
:1030E000086840F00400086070470A6822F0040293
:1030F0000A60704718ED00E000E400E00CED00E02D
:103100000000FA0500E100E010E000E000F000B887
:103110007047000080B52048016841F0010101605E
:10312000006800F00100009000980320FFF78DFF79
:10313000002200216FF00B00FFF794FF0022002116
:103140006FF00A00FFF78EFF002200216FF00900E8
:10315000FFF788FF002200216FF00400FFF782FFD5
:10316000002200216FF00300FFF77CFF0022002106
:103170006FF00100FFF776FF002200214FF0FF30D3
:10318000FFF770FF0548016821F0E0610160026807
:1031900042F00072026001BD1810024004000140BC
:1031A00038B508B9022032BD00F5FE74A3690BB131
:1031B0000025A56101B1616101212170027000F05B
:1031C0003EFC002032BD0246002011B1C2F81412AC
:1031D00070470220704780B500F074FC002002BDEB
:1031E00010B5D0F8142202241AB11268904700B921
:1031F0000024204610BD80B5D0F814225368E0E0CA
:1032000038B5044604F50275284600F094FE04F52E
:10321000FA7001210160418B4160017D11F01F00B6
:1032200003D002280BD005D30EE02946204600F03B
:10323000EFFC0EE02946204600F082FD09E0294619
:10324000204600F099FD04E001F08001204600F0E6
:1032500063FC002032BD38B5044610460A0004F570
:10326000FA731FD11968032924D104F586714A68BD
:103270000D68AA420AD2AD1A0D60954238BF2A469F
:10328000014692B2204600F0B2FE13E0186A0169CE
:1032900021B1187A032804BF20468847204600F051
:1032A000AEFE07E0186A826922B1187A032804BFCB
:1032B00020469047002032BD38B5044610460A002B
:1032C00004F5FA7538D1296802292FD1E269216AFB
:1032D000914207D2521AE261014692B2204600F0B2
:1032E00074FE11E0A269B2FBF1F001FB102090B96D
:1032F0008A4210D3686882420DD200220021204603
:1033000000F063FE002068600023002200212046B8
:1033100000F045FC0AE0286AC16821B1287A032838
:1033200004BF20468847204600F070FE287B012815
:103330000AD10021297307E0286A426922B1287A5C
:10334000032804BF20469047002032BD10B5044634
:1033500040230022002100F0C2FB4020C4F81001ED
:10336000402300228021204600F0B9FB402020624B
:1033700004F5FE7201201070D06928B1926961686D
:103380005368C9B220469847002010BD0174002040
:10339000704700F5FE7001784170042102E000F5ED
:1033A000FE70417801700020704780B500F5FE7115
:1033B0000A78032A03D18969C96901B188470020C5
:1033C00002BD9847002002BD7CB506460025307C32
:1033D00030B94FF4007300F031F84FF4007303E09C
:1033E000402300F02BF8402302220121304600F058
:1033F00076FB082303228221304600F070FB4FF455
:10340000077000F0DDFB040006F5067008BF01251B
:10341000046011D040680168884704F501700561B7
:1034200045610268307C00280CBF4FF400734023D4
:103430000121304600F0B3FB284676BD02228121EF
:10344000304600F04CBB10B50446812100F057FB1C
:103450000121204600F053FB8221204600F04FFB63
:1034600004F50674206838B16168486880472068B0
:1034700000F0B2FB00202060002010BDF8B50D4622
:10348000044604F5067329781E6811F060001ED00A
:10349000202824D1EA88A2B16878090606D55B689D
:1034A0009F683146B847EA88314615E006F5007155
:1034B0000870E88848703146EA88204600F08DFDA3
:1034C0000DE05B6868789C682946A04707E068784B
:1034D0000A2804D101222449204600F06EFD002074
:1034E000F2BDD0F8180220B10021C0F8141200205B
:1034F00070470220704770B500F50674256805F521
:10350000017600F059FBB060206838B1626830681D
:10351000D36805F503719847002070BD022070BD87
:1035200010B500F5067043680168002B1EBF01F559
:1035300000742078FF2804D062789B689847FF20A9
:103540002070002010BD43210180084870474321AE
:1035500001800748704743210180064870470A21CF
:103560000180054870470000C84100208C020020FF
:1035700048020020D002002004020020024602205F
:1035800011B1C2F81C1200207047D0F8180200F5E3
:1035900002700160826000207047D0F81802C0F805
:1035A00004120020704780B5D0F8181261B1D1F82C
:1035B0000422017C00290CBF4FF400734023012139
:1035C00000F0EDFA002002BD022002BD30B500F18E
:1035D0003C031A78012A01D1022030BD01241C705D
:1035E00002225A700268546824F07004546004681F
:1035F00065680A68154365600268946824F0800471
:10360000946002689468486804439460012058708C
:103610000020187030BD10B5040001D1012010BD8C
:10362000607920B9002121712046FEF73AFD012082
:103630006071002010BD0000F8B504460027002688
:10364000002C7AD004F12405686820B9AE60287097
:103650002046FEF78DFD204600F07AF96968CA061B
:103660006CD401006AD1696821F4885141F00201EB
:1036700069602368DFF8BC12E269D4F804C08B42A9
:1036800004BFB2F5402F4FF40022E16842EA0C0279
:10369000D4F808C0BCF5807F14BFBCF1010F4FF413
:1036A0008077D4F814C0BCF1010F42EA41020FD177
:1036B00031B9A169491E490341F400610F4307E094
:1036C000696841F020016960A96841F00101A960C1
:1036D000596821F469410F435F602368DFF858128D
:1036E0009F680F4017439F60A168B1F5807F18BFA6
:1036F000012902D12669761E36052168CB6A23F49A
:1037000070031E43CE622468DFF83012A3680B40BA
:10371000934208D10021A960696821F0020141F0BB
:1037200001016960F2BD686820F0020040F01000FD
:103730006860A86840F00100A86003E0686840F095
:10374000100068600120F2BD10B504462168486889
:10375000820622D50A6890071FD5A06AC20603D444
:10376000A06A40F40070A06200F05AF804BFE0685C
:1037700000280BD14A6822F020024A60A06A20F497
:103780008070A062A06AC10400F050F8204600F0EA
:1037900044FC21686FF01200086021684868020646
:1037A0002BD50A68500728D5A06AC20603D4A06AA0
:1037B00040F40050A062886800F4E040B0F5E04FAB
:1037C00008D04868420511D400F02AF804BFE06828
:1037D00000280BD14A6822F080024A60A06A20F4D7
:1037E0008050A062A06AC10500F020F8204600F0D9
:1037F00015FC21686FF00C000860206841684A06DB
:103800000DD50068C1070AD5A06A40F48030A062D7
:10381000204600F004FC21686FF00100086010BD34
:10382000886800F46020B0F5602F704703D4A06A68
:1038300040F00100A0627047F8B50A46002100F18F
:10384000240300911C78012C01D10220F2BD012536
:103850001D701F27546815680668072C08D2641E5F
:1038600004EB8404D6F834C000F05EF8756312E00F
:103870000D2C08D2E41F04EB8404D6F830C000F00D
:1038800053F8356307E00D3C04EB8404D6F82CC0F4
:1038900000F04AF8F56207271668946805680A2E52
:1038A00008D30A3E06EB4606D5F80CC000F036F801
:1038B000EC6006E006EB4606D5F810C000F02EF8E6
:1038C0002C611468102C18BF112C23D100681D4CDA
:1038D000A0421AD11C48046825021BD4056845F48F
:1038E000000505601068102814D1154C174825688C
:1038F000B5FBF0F00A2250430090009800281EBF4C
:10390000009A521E0092F8D104E00121586840F05C
:1039100020005860002018700846F2BDB7402CEA1D
:103920000707B4403C437047A7402CEA0707A5406F
:103930003D437047003C0140FDF7E1FFFE0E1FFFD5
:1039400000020020002401400824014040420F00F2
:1039500038B5044620688168CA0719D581684908C6
:1039600049008160FEF7DCF8054620688168C807D9
:103970000ED5FEF7D5F8401B0328F6D3A06A40F019
:103980001000A062E06A40F00100E062012032BD58
:10399000002032BD704770477047704770477047CE
:1039A00070477047704770477047000081B00068EB
:1039B0008449884209D18448016841F400010160CA
:1039C000006800F400000090009801B0704700F219
:1039D0002C41D0F85C04FFF713BC00EB4112D0F887
:1039E0005C04D2F83C22FFF736BC00EB4112D0F861
:1039F0005C04D26BFFF760BCD0F85C04FFF7D5BC69
:103A000010B504460121D4F85C04FFF7BFFCD4F8DC
:103A10005C04BDE81040FFF799BC10B50446D4F82B
:103A20005C04FFF7B6FCA06920B16848016841F06A
:103A30000601016010BDD0F85C04FFF7B0BC10B502
:103A4000044663485F49C0F85C44C4F82002016042
:103A500008214160022181600321C1600021816150
:103A6000C161016200F0DCFA28B14FF48C710FF2F1
:103A70006C10FDF751FFD4F820021823002200211A
:103A800000F027FED4F8200258230022802100F005
:103A900020FED4F82002C0230022812100F019FE6C
:103AA000D4F820024FF488730022012100F011FEA7
:103AB000D4F820024FF480730022822100F009FE26
:103AC000002010BD10B5D0F8200200F0FEFA00244E
:103AD00018B102280CBF01240224204610BD38B5BD
:103AE0001C461346D0F82002224600F0A3FB002516
:103AF00018B102280CBF01250225284632BD10B599
:103B0000D0F8200200F0B0FB002418B102280CBF4E
:103B100001240224204610BD10B5D0F8200200F088
:103B2000F4FB002418B102280CBF01240224204613
:103B300010BD10B5D0F8200200F014FC002418B11C
:103B400002280CBF01240224204610BD81B0D0F809
:103B5000200201F07F0200EB421009064CBF90F8F2
:103B60002A0090F82A0201B0704710B5D0F8200260
:103B700000F051FB002418B102280CBF01240224DC
:103B8000204610BD10B5D0F8200200F0A5FB00249F
:103B900018B102280CBF01240224204610BD10B524
:103BA000D0F8200200F084FB002418B102280CBFDA
:103BB00001240224204610BDD0F8200200F084BB6E
:103BC00004487047005C00401C10024010ED00E00B
:103BD00070330020F439002070477047433A5C5539
:103BE000736572735C31373635375C4465736B745B
:103BF0006F705C445376312E335C445350726F5C6B
:103C00005372635C757362645F636F6E662E6300EC
:103C1000F8B50D4604466878092804F5FE7646D8BE
:103C2000DFE800F0647945744509054553222046D4
:103C300000F006F97FE0A988002904BFE888002881
:103C400035D13078AF78032807F07F072FD0B770D1
:103C500039462046FFF789FF00F08BF8002F14BF8C
:103C600002200120307066E0344F6888387039785F
:103C700002291CDA3278022A08461BD0032A16D100
:103C800039B902203070002060602046FFF7B3FA97
:103C90004FE0616888424CD0C9B22046FFF7ABFACA
:103CA000397861602046FFF79BFA022841D100F085
:103CB0003FF940E000293CD060600320307020468E
:103CC000FFF78EFA0228F2D033E0E8880128EED11F
:103CD0003178022904D00329E9D10122211D11E004
:103CE0000020A060012204F108010BE03078801E62
:103CF0000128DCD8B068012100B10321E160022273
:103D000004F10C01204600F058F914E068880128FD
:103D100011D1012107E03078801E0128C7D86888BA
:103D2000012808D10021B269B16029469368204674
:103D3000984700F01EF80020F2BD0000C9410020A5
:103D400038B5044604F5FE720D46107803280CD1F0
:103D50002979022909DA9269936829462046984709
:103D6000E88820B900F005F801E000F0E1F8002053
:103D700032BD204600F043B970B50D4604462878A0
:103D8000297900F06000202804F5FE7602D100F0C9
:103D900051F84DE06A78002A01F07F0026D0012A10
:103DA0000FD0032A44D13078022810D003283DD107
:103DB000688828B900291EBF80292046FFF7ACFE7D
:103DC0000FE03278022A02D0032A04D02EE0002924
:103DD0002ED0802911E06A8852BB20B12046FFF71F
:103DE000A8FE00F027F8FFF7C4FF21E03278022A8E
:103DF00002D0032A06D019E0002819D02046FFF788
:103E00008BFE15E004EB00100A064CBF00F1140510
:103E100000F582752046FFF799FE00B10120286069
:103E200002222946204600F0C8F801E000F080F8A0
:103E3000002070BDB26993682946204618470000EB
:103E400038B50D4604466888010A012904F5047254
:103E500008D0022920D003292BD0062955D00729C4
:103E60005AD062E01268207C136869469847BDF812
:103E7000001000291CBFE98800290CD0BDF80020E3
:103E80008A4288BF0A46ADF800200146BDF80020EE
:103E9000204600F092F831BD207C51680028684629
:103EA00004D1896A884702214170E0E7C96A8847DE
:103EB000F9E7C0B2052838D8DFE800F003090F158C
:103EC0001B211268207C536869469847CFE7126827
:103ED000207C936869469847C9E71268207CD368BC
:103EE00069469847C3E71268207C1369694698477A
:103EF000BDE71268207C536969469847B7E71268A6
:103F0000207C936969469847B1E7207C68B951687D
:103F10004A6B68469047AAE7207C30B951680A6B23
:103F20006846904707224270A1E700F001F831BDD2
:103F30002946204613E00A7802704A784270CB780E
:103F40008A7802EB032242804B790A7902EB032242
:103F500082808A79C97902EB0122C280704710B54C
:103F600004468021FFF7D8FD2046BDE8104000211F
:103F7000FFF7D2BD002800D1704730B503460024BA
:103F800000E0641C13F8015B002DFAD12406E40D57
:103F9000A41C1480022312880A7003224A7008E0CD
:103FA00010F8012BDBB2CA545B1CDBB20022CA54EE
:103FB0005B1C0278002AF3D130BD80B51346022283
:103FC000C0F8F4218361C36101E080B513460A465D
:103FD0000021FFF7D7FD002002BD80B51346032264
:103FE000C0F8F42100F584721360536001E080B5DD
:103FF00013460A460021FFF7D2FD002002BD80B51E
:104000000421C0F8F41100230022E1E780B5052166
:10401000C0F8F41100230022ECE7704770477047A6
:1040200078B585B0044600260CB9012046E004F5B9
:104030008565687818B92E702046FFF7B7FC032015
:104040006870206800F065FB83B000F039F80EBCA2
:10405000206800F057FB2068002100F05FFB04EBB4
:10406000461028300121067086814170761C00219F
:104070000F2EC170016141618161F0D300200023E6
:1040800004EB401101F50A72537010708886D370EA
:10409000401C0F28136153619361F1D383B000F08A
:1040A0000FF80EBC206800F03BFB002084F82400D1
:1040B00001206870206800F006FE002006B070BD88
:1040C000211D6846202200F02FBE10B500F09EF89A
:1040D00001D1022010BD00F08FF8206800F0F1FD42
:1040E000206800F011FB8DE010B5044600F081F867
:1040F000010444BF204600F05AF900F07AF8400568
:104100000CD500F072F84FF6FF3000F06AF8204648
:10411000FFF776FC0021204600F07DF800F069F8FA
:10412000400405D500F061F84BF6FF7000F059F837
:1041300000F05FF8800405D500F057F84DF6FF70E9
:1041400000F04FF800F055F8C00417D52168B1F819
:1041500040204FF6FB700240A1F840204FF6F77068
:10416000B1F840200240A1F840202046FFF763FC50
:1041700000F03BF84EF6FF7000F033F800F039F82D
:10418000000516D5206800F14002118841F00801B1
:1041900011804FF2FF7193880B409380118841F09A
:1041A0000401118000F091FDC0045CBF2046FFF7C0
:1041B00034FC00F01EF8800508D500F016F84FF624
:1041C000FF5000F00EF82046FFF716FC00F011F843
:1041D000C00505D500F009F84FF6FF6000F001F8C2
:1041E00010BD0240A1F8442070472168B1F8442076
:1041F0007047206800F069BD012184F8281420462A
:10420000FFF7EBBC002084F8280410BD044694F8A6
:1042100028040128704710B5FFF7F8FF01D10220EC
:1042200010BD012284F8282484F82410206800F0AE
:1042300042FDE7E738B500F035F80D064CBF2830F1
:1042400000F50A7001F07F050570C909417002612F
:10425000C37094F82814012901D1022032BD00F066
:104260001BF800F06DFA9EE010B500F01BF80A068E
:104270004CBF283000F50A7001F07F020270C909B6
:10428000417094F82814012901D1022010BD00F0DA
:1042900003F800F06FFBB5E7012284F828240146FB
:1042A00020687047044601F07F0004EB401070471F
:1042B00038B501F07F0400EB441505F50A7400F0F1
:1042C0001DF86270217013E001F00F0100EB411046
:1042D000D0F8440280B2704738B501F07F0400EB9B
:1042E000441505F1280400F009F8217001226270DC
:1042F0002146006800F0BDFB002032BD01F07F01C7
:104300006261A3610022E261704738B505460C4640
:104310002106204606D500F07F0105EB411202F18F
:10432000280103E005EB441303F50A7101228A70AA
:1043300004F07F040C70C009487095F82804012827
:1043400001D1022032BD85F82824286800F056FCEF
:1043500024B9286805F22C4100F0BAFC002085F849
:10436000280432BD38B5044608060A4606D502F0D0
:104370007F0004EB401303F1280003E004EB411538
:1043800005F50A700023837001F07F010170D209E6
:10439000427094F82814012901D1022032BDFFF7A0
:1043A0007BFF00F050FC002084F8280432BD2DE98A
:1043B000F84F0021ADF80010ADF8001000F50A78B4
:1043C000064626E001880AEA0101018006F124047C
:1043D0003068B0F85010227901EBC20100EB4100C7
:1043E00000F204400068A169C0F30900206208449B
:1043F000A06100213046FFF7F8FA217849B1E06961
:1044000038B92178306841F08001A0F84C100021C3
:104410002170306800F144010A88ADF800201204D0
:1044200040F13681BDF8004014F00F0440F68F775C
:1044300048F60F7A6BD1BDF80020D306C2D50388A9
:10444000ADF80030BDF80020130514D5898900F0BF
:1044500036F9B8F80420C3F30903C8F81C3006F293
:104460002C4100F052FC306801880F400780304634
:10447000FFF7ADFACDE7BDF800100A04C9D50288F0
:10448000174007803068B0F8501000F018F9C3F3F7
:104490000903002BC8F81C300CD0B8F80420D8F859
:1044A000141000F032FCD8F81400D8F81C1008449E
:1044B000C8F8140000213046FFF78FFA3068B0F8D2
:1044C000501000EB4100D8F810103F2900F20C40CA
:1044D00009D34A0911F01F0F08BF521E920242F47D
:1044E000004292B205E04A08C90748BF521C920632
:1044F000120C02604BF68F7230680188114081F413
:10450000405141F4004141F08001018081E730F8E1
:104510002410ADF8001006EB4415BDF800100A0495
:1045200048F68F7957D530F824100F4020F82470C2
:1045300005F50A77306897F800C0B97A61B9B0F824
:10454000501001EBCC0200F0B0F82FD0BA88796996
:104550005B4600F0DAFB29E030F82C104904B0F893
:1045600050100DD511EBCC0200EB420303F20443D3
:104570001968C1F3090BBBF1000F0BD0FA8805E0F5
:1045800011EBCC0200F091F804D03A895B467969CE
:1045900000F0BBFB3168387831F8202009EA0202CC
:1045A00042F4004242F0C00221F82020F969594447
:1045B000F961796901EB0B027A61BB6913B1396961
:1045C0008B4504D239783046FFF707FA03E0397893
:1045D0003046FFF76DFEBDF80000010654D5306887
:1045E00030F824100AEA010120F8241015F8281FD9
:1045F0003368A87ACA0058B9B3F85010521800F0BE
:104600004AF82AD0AA886969306800F06CFB24E077
:1046100033F821004106B3F8500005D5121800F018
:104620003AF80ED0EA8808E0121803EB420404F2CC
:104630000C4400F034F804D02A896969306800F02D
:1046400052FB3168287831F8202009EA020242F44E
:10465000404242F0800221F8202030682978B0F8EA
:10466000502002EBC10200EB420000F2044000685F
:10467000C0F30900E8616A6902446A613046AB69C7
:10468000002B02D1FFF7B1F9C3E6FFF725FEC0E624
:104690000020BDE8F28F03EB420404F204442368D7
:1046A000C3F30903002BEB61704700EB420303F2F5
:1046B0000C431968C1F3090BBBF1000F704798F860
:1046C000002001EBC20100EB410101F20C410B683B
:1046D000704710B50C0605D501F07F0100EB4110C5
:1046E000283003E000EB411101F50A7012B9827223
:1046F000838004E0C38001211B0C817203810020B0
:1047000010BD00000EB417E0B0F8401041F43F4176
:10471000E0E2B0F8402044F2FF21DFE200207047E1
:104720000EB4012120F8401F002101808180018208
:10473000018841F43F410180002003B07047000030
:104740002DE9F8430A4648F68F11D378032B16D883
:10475000DFE803F0020F070A00F007F941F40071E7
:104760000BE000F002F908E000F0FFF841F4C0614E
:1047700003E000F0FAF841F4806120F8231011788A
:10478000884630F8286048F68F74264048F2800347
:104790003143194320F828104BF68F78917A157819
:1047A00000294CF2800648F6BF7748F2C00C55D17C
:1047B000918849084FEA410951780029B0F8501012
:1047C00001EBC50500EB450116D001F58061C1F88C
:1047D0000090117830F821506E0606D530F821503F
:1047E0002C404CEA040420F82140117830F82120B4
:1047F000174087F020077BE001F58161C1F8009048
:10480000B0F85010177801EBC70100EB410E1169A9
:104810003F290EF20C4E09D34F0911F01F0F08BFAC
:104820007F1EBF0247F40047BFB205E04F08C9072B
:1048300048BF7F1CBF063F0CCEF80070117830F8DF
:1048400021707D0405D530F821703C40344320F8B8
:10485000214000F084F882F440526EE030F82510D8
:10486000214041F4014141F0800120F8251000F081
:1048700070F8D58800EB410101F580616D086D008D
:104880000D6000F066F800EB410101F581651189CA
:1048900049084900296092F800E0517851BB30F88E
:1048A0002E50690405D530F82E1021400E4320F813
:1048B0002E60117830F82160750606D530F8216039
:1048C00026404CEA060620F82160117830F8216075
:1048D00034404CEA040400F036F808EA040484F496
:1048E00040541C4320F82140117830F82120174013
:1048F0003B4323E030F82E104D0405D530F82E1040
:104900002140314320F82E10117830F821506D06E7
:1049100006D530F8215025404CEA050520F82150F5
:10492000117830F821502C40344300F00CF8274027
:104930001F4320F8217000F012F8134320F82130B3
:104940000020BDE8F28320F82140117830F82140A2
:104950007047B0F85010157801EBC5017047117819
:1049600030F8212008EA02027047137830F823401B
:10497000214070472DE9F041024691F800E0487867
:104980008B7A4BF68F764CF2800848F2800448F61A
:10499000BF7548F2C00C48F68F77BBB9002832F8D3
:1049A0002E0009D0430628D532F82E0007404CEAE5
:1049B000070022F82E0020E0430439D532F82E00FB
:1049C000074048EA070022F82E0031E0002832F8BC
:1049D0002E001AD1430406D532F82E00384048EA9A
:1049E000000022F82E0000F033F84CEA070300F034
:1049F00029F81E40264322F82060087832F820105B
:104A00000D402C4322F8204019E0430406D532F82B
:104A10002E00384048EA000022F82E0000F018F876
:104A200048EA070300F00EF81D40254322F8205005
:104A3000087832F820100E40264322F8206000202B
:104A4000BDE8F08122F82030087832F82030704735
:104A5000087832F820305B0606D532F820303B402B
:104A60004CEA030322F82030087832F820301F4047
:104A700070472DE9FC410D4680466A78A86929698E
:104A8000012A074648F2800640D181423ABF0F46CC
:104A9000C01B0020A861A87A28B9AA8800F09FF856
:104AA00000F0A1F829E02878C10038F8200042067B
:104AB000B8F8500003D500F08BF82A8902E000F026
:104AC00087F8EA8800F08BF8687848F68F7140B96B
:104AD000287838F82020114041F4004141F0C0010D
:104AE00009E0012809D1287838F82020114041F444
:104AF000404141F0800128F82010297838F8212021
:104B000048F6BF70024082F0300255E081423ABF61
:104B10000F46C01B0020A8617B08A97A4FEA571CEA
:104B200007F0010039B9B8F85020297802EBC1022A
:104B300008EB42041EE0BAB900F044F808EB41016A
:104B40003F2F01F2044109D3624617F01F0F08BF3F
:104B5000521E920242F4004292B204E01A4600B1A0
:104B6000521C9206120C0A606978C9B900F02AF842
:104B700008EB41043F2F04F20C440BD317F01F0F36
:104B800008BFACF1010C4FEA8C2040F4004080B229
:104B9000206009E000B15B1C9B061B0C236003E056
:104BA000012901D100F01FF84BF68F70297838F8F1
:104BB0002120024082F44052164328F82160002050
:104BC000BDE8F681B8F850102A7801EBC2017047B1
:104BD000091808EB410404F204442760704769692E
:104BE000BBB240467FE0B8F85000297800EBC10026
:104BF00008EB400404F204442760704718B50A78B3
:104C000048F2800352B901884BF6BF72114081F41B
:104C1000805181F010010B43038012E0497830F895
:104C20002240002905D048F6BF710C4084F01004E2
:104C300004E04BF68F710C4084F48054234320F839
:104C40002230002012BD70B50C784A7848F28003FB
:104C500048F68F75AAB130F82460720608D530F88E
:104C60002420154045F4004545F0C00520F82450A7
:104C70000A7830F8224048F6BF710C4084F03004C6
:104C800014E030F82420560408D530F824201540CC
:104C900045F4404545F0800520F824500A7830F866
:104CA00022404BF68F710C4084F44054234320F88B
:104CB0002230002070BD11B98021A0F84C100020D6
:104CC00070470020704700207047B0F844007047DC
:104CD00000207047A0F84010002070470A40A0F85C
:104CE00040200020704710B500EB42005B1C00F52F
:104CF00080605B1007E00A784C7842EA0422891C45
:104D000020F8042B5B1EF6D110BD00EB42005B1CAB
:104D100000F580605B1004E050F8042B21F8022BB2
:104D20005B1EF9D170470000103A07D330B4B1E8E8
:104D30003810103AA0E83810F9D230BC530724BF1D
:104D4000B1E80810A0E8081044BF51F8043B40F84F
:104D5000043BD20724BF31F8022B20F8022B44BFBA
:104D60000B7803707047121F17D35B0009D151F8FD
:104D7000043B20F8023B1B0C121F20F8023BF6D22A
:104D80000BE051F8043B00F8013B1B0A20F8023B02
:104D90001B0C121F00F8013BF3D238BF121D521E2C
:104DA00024BF11F8013B00F8013BF8D87047000020
:104DB0007047FEE7FEE7FEE7FEE770477047704783
:104DC00080B500F05BF8BDE80140FEF79FB9022016
:104DD000FCF77BBE1B48FCF733BB1B48FCF730BB22
:104DE0001A48FCF72DBB1A48FCF72ABB1948FCF7F8
:104DF00027BB1948FEF7A8BC1848FFF775B9184833
:104E0000FDF744BA1748FBF707BA1648FBF71DBB76
:104E100010B5154C2046FDF7D5FE04E010B5134C37
:104E20002046FDF7E1FE2046BDE81040FDF7ABBC93
:104E30000F48FDF72BBA0F48FDF7A5BC0E48FCF74D
:104E4000FFBA0000BC3F00209C3E0020583E0020DE
:104E5000E03E0020243F00208441002070330020E9
:104E600044400020683F00200441002044410020CD
:104E700084400020C4400020143E00200248016805
:104E8000491C0160704700BFC44100201220088007
:104E90000F487047042008800E48704710B500F096
:104EA00013F80FF2500004E010B500F00DF80FF207
:104EB0005C002146FFF75EF8204610BD10B500F0FB
:104EC00003F80FF25C00F4E70A46034C7047000059
:104ED0004003002054030020143C002010B5FFF7CD
:104EE000F3FF0FF24C00E4E710B5FFF7EDFF0FF210
:104EF0004C00DEE753544D333220566972747561AD
:104F00006C20436F6D506F727400000053544D69F4
:104F100063726F656C656374726F6E6963730000B2
:104F2000303030303030303030303141000000002F
:104F300043444320436F6E66696700004344432047
:104F4000496E746572666163650000000E49086809
:104F500040F0010008604A680C4802404A600B6853
:104F60000B4803400B60086820F4802008604FF471
:104F70001F004A6822F4FE024A6088604FF0006019
:104F80000449086070470000001002400000FFF86C
:104F9000FFFFF6FE08ED00E000000000000000004A
:104FA000010203040607080938B50E4C0E4D002215
:104FB00005F500612046FEF7E8FA29462046FEF78F
:104FC000ECFA002032BD002070470020704710B579
:104FD0000146044C2046FEF7E0FA2046FEF7E3FACD
:104FE000002010BDD03700205803002019E050F8F1
:104FF000042BD30744BFA9F101039A18091F00230A
:10500000042942F8043BF9D25FEA817C134604D5B7
:105010004FF0000CA2F800C09B1CC90744BF002140
:10502000197050F8041B0029E1D1704710B50749E9
:1050300079441831064C7C44163404E00A68081D93
:10504000114488470146A142F8D110BD0800000074
:105050002400000099FFFFFF743E00005803002069
:10506000000000005BC1FFFF28010000A605000052
:105070000000002000F00DF8002801D0FFF7D6FF57
:10508000AFF300800020AFF30080FCF7E9FA00F0F6
:1050900002F80120704700F001B8000007463846CA
:1050A00000F002F8FBE7000080B5AFF30080024A91
:1050B00011001820ABBEFBE7260002000148804724
:1050C000014800474D4F0008CD500008AFF3008065
:1050D000AFF30080FFF7CEFF0000000001020304E1
:1050E000FFF7FEBFFFF7FEBFFFF7FEBFFFF7FEBFF4
:1050F000FFF7FEBFFFF7FEBFFFF7FEBFFFF7FEBFE4
:10510000FFF7FEBFFFF7FEBFFFF7FEBFFFF7FEBFD3
:10511000FFF7FEBFFFF7FEBFFFF7FEBFFFF7FEBFC3
:10512000FFF7FEBFFFF7FEBFFFF7FEBFFFF7FEBFB3
:10513000FFF7FEBFFFF7FEBFFFF7FEBFFFF7FEBFA3
:10514000FFF7FEBFFFF7FEBFFFF7FEBFFFF7FEBF93
:10515000FFF7FEBFFFF7FEBFFFF7FEBFFFF7FEBF83
:10516000FFF7FEBFFFF7FEBFFFF7FEBFFFF7FEBF73
:10517000FFF7FEBFFFF7FEBFFFF7FEBFFFF7FEBF63
:10518000FFF7FEBFFFF7FEBFFFF7FEBFFFF7FEBF53
:1051900000FE00002110422063308440A550C6600C
:1051A000E770088129914AA16BB18CC1ADD1CEE1E4
:1051B000EFF13112100273325222B5529442F7725B
:1051C000D662399318837BB35AA3BDD39CC3FFF334
:1051D000DEE36224433420040114E664C774A4446B
:1051E00085546AA54BB528850995EEE5CFF5ACC584
:1051F0008DD55336722611163006D776F66695563B
:10520000B4465BB77AA719973887DFF7FEE79DD7D3
:10521000BCC7C448E5588668A778400861180228CA
:105220002338CCC9EDD98EE9AFF9488969990AA923
:105230002BB9F55AD44AB77A966A711A500A333A9A
:10524000122AFDDBDCCBBFFB9EEB799B588B3BBB73
:105250001AABA66C877CE44CC55C222C033C600C2A
:10526000411CAEED8FFDECCDCDDD2AAD0BBD688DC3
:10527000499D977EB66ED55EF44E133E322E511E7A
:10528000700E9FFFBEEFDDDFFCCF1BBF3AAF599F13
:10529000788F00FE8891A981CAB1EBA10CD12DC1F4
:1052A0004EF16FE18010A100C230E3200450254090
:1052B00046706760B9839893FBA3DAB33DC31CD3F0
:1052C0007FE35EF3B1029012F322D23235421452E0
:1052D00077625672EAB5CBA5A89589856EF54FE53C
:1052E0002CD50DC5E234C324A01481046674476430
:1052F00024540544DBA7FAB79987B8975FE77EF790
:105300001DC73CD7D326F2369106B016576676767F
:10531000154634564CD96DC90EF92FE9C899E9895B
:105320008AB9ABA94458654806782768C018E108CF
:105330008238A3287DCB5CDB3FEB1EFBF98BD89B2F
:10534000BBAB9ABB754A545A376A167AF10AD01A1F
:10535000B32A923A2EFD0FED6CDD4DCDAABD8BAD7B
:10536000E89DC98D267C076C645C454CA23C832C6F
:10537000E01CC10C1FEF3EFF5DCF7CDF9BAFBABFCF
:10538000D98FF89F176E367E554E745E932EB23EBF
:10539000D10EF01E100B00A24A040A060002000003
:1053A000004001051007C9330008473400087D0498
:1053B000120001100321350008E30C52F7106101BF
:1053C000124F18124704125704125F04100D0902FD
:1053D0004300020100C0320904000001020B101E4C
:1053E0000524001001052401000104240202052403
:1053F0000600010705820308001009040100020AE3
:105400004E1002070501027B200107058107F228E3
:105410000044224007228107200100090744F213BB
:105420000444F207FF441003A94F0008C70412CB3D
:105430000412CF0410038D4E0008950412A9041223
:105440009D0412BD0412DD0412E904121243100679
:10545000020200408304405779170203450002040A
:0354600003090439
:04000005080050CDD2
:00000001FF
